{
  "contractName": "FileStorage",
  "abi": [
    {
      "inputs": [
        {
          "internalType": "string",
          "name": "_hash",
          "type": "string"
        }
      ],
      "name": "uploadFile",
      "outputs": [],
      "stateMutability": "nonpayable",
      "type": "function"
    },
    {
      "inputs": [
        {
          "internalType": "string",
          "name": "_hash",
          "type": "string"
        }
      ],
      "name": "getFile",
      "outputs": [
        {
          "internalType": "string",
          "name": "",
          "type": "string"
        }
      ],
      "stateMutability": "view",
      "type": "function",
      "constant": true
    }
  ],
  "bytecode": "0x608060405234801561000f575f80fd5b506108768061001d5f395ff3fe608060405234801561000f575f80fd5b5060043610610034575f3560e01c8063e0876aa814610038578063e37ffc3014610068575b5f80fd5b610052600480360381019061004d91906103d5565b610084565b60405161005f9190610496565b60405180910390f35b610082600480360381019061007d91906103d5565b6101e0565b005b60603373ffffffffffffffffffffffffffffffffffffffff165f836040516100ac91906104f0565b90815260200160405180910390206001015f9054906101000a900473ffffffffffffffffffffffffffffffffffffffff1673ffffffffffffffffffffffffffffffffffffffff1614610133576040517f08c379a000000000000000000000000000000000000000000000000000000000815260040161012a90610550565b60405180910390fd5b5f8260405161014291906104f0565b90815260200160405180910390205f01805461015d9061059b565b80601f01602080910402602001604051908101604052809291908181526020018280546101899061059b565b80156101d45780601f106101ab576101008083540402835291602001916101d4565b820191905f5260205f20905b8154815290600101906020018083116101b757829003601f168201915b50505050509050919050565b60405180604001604052808281526020013373ffffffffffffffffffffffffffffffffffffffff168152505f8260405161021a91906104f0565b90815260200160405180910390205f820151815f01908161023b9190610771565b506020820151816001015f6101000a81548173ffffffffffffffffffffffffffffffffffffffff021916908373ffffffffffffffffffffffffffffffffffffffff16021790555090505050565b5f604051905090565b5f80fd5b5f80fd5b5f80fd5b5f80fd5b5f601f19601f8301169050919050565b7f4e487b71000000000000000000000000000000000000000000000000000000005f52604160045260245ffd5b6102e7826102a1565b810181811067ffffffffffffffff82111715610306576103056102b1565b5b80604052505050565b5f610318610288565b905061032482826102de565b919050565b5f67ffffffffffffffff821115610343576103426102b1565b5b61034c826102a1565b9050602081019050919050565b828183375f83830152505050565b5f61037961037484610329565b61030f565b9050828152602081018484840111156103955761039461029d565b5b6103a0848285610359565b509392505050565b5f82601f8301126103bc576103bb610299565b5b81356103cc848260208601610367565b91505092915050565b5f602082840312156103ea576103e9610291565b5b5f82013567ffffffffffffffff81111561040757610406610295565b5b610413848285016103a8565b91505092915050565b5f81519050919050565b5f82825260208201905092915050565b5f5b83811015610453578082015181840152602081019050610438565b5f8484015250505050565b5f6104688261041c565b6104728185610426565b9350610482818560208601610436565b61048b816102a1565b840191505092915050565b5f6020820190508181035f8301526104ae818461045e565b905092915050565b5f81905092915050565b5f6104ca8261041c565b6104d481856104b6565b93506104e4818560208601610436565b80840191505092915050565b5f6104fb82846104c0565b915081905092915050565b7f4e6f7420617574686f72697a65640000000000000000000000000000000000005f82015250565b5f61053a600e83610426565b915061054582610506565b602082019050919050565b5f6020820190508181035f8301526105678161052e565b9050919050565b7f4e487b71000000000000000000000000000000000000000000000000000000005f52602260045260245ffd5b5f60028204905060018216806105b257607f821691505b6020821081036105c5576105c461056e565b5b50919050565b5f819050815f5260205f209050919050565b5f6020601f8301049050919050565b5f82821b905092915050565b5f600883026106277fffffffffffffffffffffffffffffffffffffffffffffffffffffffffffffffff826105ec565b61063186836105ec565b95508019841693508086168417925050509392505050565b5f819050919050565b5f819050919050565b5f61067561067061066b84610649565b610652565b610649565b9050919050565b5f819050919050565b61068e8361065b565b6106a261069a8261067c565b8484546105f8565b825550505050565b5f90565b6106b66106aa565b6106c1818484610685565b505050565b5b818110156106e4576106d95f826106ae565b6001810190506106c7565b5050565b601f821115610729576106fa816105cb565b610703846105dd565b81016020851015610712578190505b61072661071e856105dd565b8301826106c6565b50505b505050565b5f82821c905092915050565b5f6107495f198460080261072e565b1980831691505092915050565b5f610761838361073a565b9150826002028217905092915050565b61077a8261041c565b67ffffffffffffffff811115610793576107926102b1565b5b61079d825461059b565b6107a88282856106e8565b5f60209050601f8311600181146107d9575f84156107c7578287015190505b6107d18582610756565b865550610838565b601f1984166107e7866105cb565b5f5b8281101561080e578489015182556001820191506020850194506020810190506107e9565b8683101561082b5784890151610827601f89168261073a565b8355505b6001600288020188555050505b50505050505056fea264697066735822122017449ba044836bbb9410dc1cc85dffedd7f92b9344550e89d096bb75d21c79bc64736f6c63430008150033",
  "immutableReferences": {},
  "source": "// SPDX-License-Identifier: MIT\npragma solidity ^0.8.0;\n\ncontract FileStorage {\n    struct File {\n        string hash;\n        address owner;\n    }\n\n    mapping(string => File) files;\n\n    function uploadFile(string memory _hash) public {\n        files[_hash] = File(_hash, msg.sender);\n    }\n\n    function getFile(string memory _hash) public view returns (string memory) {\n        require(files[_hash].owner == msg.sender, \"Not authorized\");\n        return files[_hash].hash;\n    }\n}\n",
  "sourcePath": "/home/batman/projects/decentralized-storage/contracts/FileStorage.sol",
  "compiler": {
    "name": "solc",
    "version": "0.8.21+commit.d9974bed.Emscripten.clang"
  },
  "schemaVersion": "3.4.16",
  "updatedAt": "2024-09-21T07:03:13.771Z",
  "networkType": "ethereum",
  "devdoc": {
    "kind": "dev",
    "methods": {},
    "version": 1
  },
  "userdoc": {
    "kind": "user",
    "methods": {},
    "version": 1
  }
}